:100000000F308A00512F0000FF00030E8301A10072
:100010000A08A0008A010408A2007708A300780853
:10002000A4007908A5007A08A60003170D08031399
:10003000A70003170F080313A80003170C080313E6
:10004000A90003170E080313AA00831383128B1D44
:100050002B280B1852288C308400001C31280C18D7
:100060005528220884002308F7002408F8002508F2
:10007000F9002608FA00270803178D000313280843
:1000800003178F000313290803178C0003132A0892
:1000900003178E00031320088A00210E8300FF0E31
:1000A0007F0E09008A110A1269288A110A1258283B
:1000B0008E01FF308F0006308E000130BC07031820
:1000C000BD0A0319BE0A0319BF0A0C108A110A12CD
:1000D00031288316861600308312861A0130F70005
:1000E000770D0317AB00AB0DFC30AB058316031384
:1000F000061600308312061A0130F7000310F70DC0
:1001000077080317AB048316031386150030831298
:100110008619013003172B04AA002A08F800780872
:100120000313BA000B108A110A123128202AC9269B
:10013000C527552A0D0500005F3084008313000891
:100140000319AF280230F800F701F70BA528F80BC8
:10015000A4289730F700F70BAB28800BA2280800E3
:1001600094138C1183166C08831293000230941B35
:10017000C0288C1DB92800308316111B0130831252
:10018000F80008001413831691159119C5287718E3
:100190009112771C91161116111ACC28831213088C
:1001A000F8000800831611141118D42883122C08A3
:1001B0008316EC008312B02083166908EC008312CA
:1001C000B0207808B700831691149118E52883129F
:1001D0002C0801388316EB00EC008312B020F701E5
:1001E000C22078088316EA006A08F8008312080023
:1001F000831611141118FA2883122C088316EC00A8
:100200008312B02083163F08EC008312B0208316BF
:100210004008EC008312B0207808B700831611154F
:1002200011191029831208006F08FB007308FB06E0
:10023000FB1F1F2903110310EF1B031452296F0822
:10024000FB007208FC006E08FC0203192D29FB1F3D
:1002500052290308013A830052297308FC006F08F1
:10026000FC0203193929FB1F52290308013A8300B4
:1002700052297408FC007008FC0203194529FB1F71
:1002800052290308013A830052297508FC007108BD
:10029000FC0203195129FB1F52290308013A83006C
:1002A00052290310080083161114111855298312BE
:1002B0002C088316EC008312B02083166408EC002F
:1002C0008312B02083166608E700E801E80166089B
:1002D000EC008312B02083166508E700E80165088A
:1002E000EC008312B0207808B7008316111511199D
:1002F0007729831208006D08F1006C08F0006B0884
:10030000EF006A08EE00F501F401F301F201142197
:1003100003189D29B830F100FE30F0007F30EF0067
:100320008730EE006D08F5006C08F4006B08F300F0
:100330006A08F2001421031CA0290030F8006F2A7B
:100340006D08F1006C08F0006B08EF006A08EE0021
:10035000F501F401F3018630F2006E080319302A2A
:100360008316A0007208031DB7298312302AA00744
:100370000318C5297F30A0020318C0298312302A30
:10038000031DC4298312302ACB298130A007031C06
:10039000CB298312302A2008F700F801F901FA016D
:1003A00083126F088316A400A4177008A3007108B5
:1003B000A2001830A000A101221CF6297508FA0736
:1003C000031CE829F90A031DE829F80A0319A117F3
:1003D0007408F907031CEF29F80A0319A117730819
:1003E000F000F0177008F8070318A117A10DF80C1A
:1003F000F90CFA0CA40CA30CA20C0310A00BDB2923
:100400000130F707031C062A8312302AF81B102A32
:10041000A40DFA0DF90DF80DF70B102A8312302AEE
:10042000A41F232AFA0A031D232AF90A031D232ADB
:10043000F80A031D232AF80CF90CFA0CF70A031D1D
:10044000232A8312302A83126F088316A1007308AF
:10045000A106A11F2D2AF817352AF813352A831271
:10046000F701F801F901FA0183167A08F100790819
:10047000F00078088312EF007708EE008E30F70066
:100480006E08F7026F08F9007008F800F917F7080E
:100490000319552A0310F908031D512AF8080319F6
:1004A000552AF90CF80CF70B4A2AEF1F5C2AF809B9
:1004B000F909F80A0319F90A7908EF007808EE003B
:1004C00044308316E400831279088316E600831211
:1004D00078088316E500831253210130F8000800E4
:1004E00001308316E9008312D22078088316E400D5
:1004F0006308FA006208E5006308E600640EF7008E
:100500000F30F70577080139F80078188E2A65084A
:1005100084008313661883170010942A65088400EA
:1005200083136618831700146208F8006308FA0042
:100530007808E5006308E600640CF700F70CF70C98
:100540001F30F70577080139F8007818AE2A6508DA
:1005500084008313661883170011B42A6508840089
:1005600083136618831700156308FA006208E50014
:100570006308E600640CF700F70C3F30F7057708D6
:100580000139F8007818CB2A6508840083136618AF
:1005900083178010D12A6508840083136618831797
:1005A00080146208F8006308FA007808E500630820
:1005B000E600640EF700F70CF70C0330F705770838
:1005C0000139F8007818EB2A65088400831366184F
:1005D00083178011F12A6508840083136618831736
:1005E00080156308FA006208E5006308E600F70179
:1005F000E41B771477080139F8007818062B650892
:10060000840083136618831700120C2B650884007E
:100610008313661883170016831208008316E808F0
:10062000031D202B5030E9008312D22001307807BF
:10063000F7000310F70D7708F800332B332B8316E0
:10064000680B302B7030E9008312D220013078071C
:10065000F7000310F70D7708F800332B332B8316C0
:10066000FF30F8008312080020300317A400A00117
:10067000A101A201A3011B08FA001A08F900190838
:10068000F8001808F7000310771C542B1C08A0076B
:100690001D0803181D0FA1071E0803181E0FA2072F
:1006A0001F0803181F0FA307A30CA20CA10CA00C7A
:1006B000FA0CF90CF80CF70CA40B432B03130800ED
:1006C0008318652B203084008317F701F801F901A6
:1006D000FA010317A001A101A201A3011F081E0432
:1006E0001D041C040319A42B2030A4000310980D32
:1006F000990D9A0D9B0DA00DA10DA20DA30D1F0824
:100700002302031D8D2B1E082202031D8D2B1D08A5
:100710002102031D8D2B1C082002031C9E2B1C088C
:10072000A0021D08031C1D0FA1021E08031C1E0FA2
:10073000A2021F08031C1F0FA3020314F70DF80DDC
:10074000F90DFA0DA40B762B20088000840A2108ED
:100750008000840A22088000840A23088000031392
:10076000080003179B019A010930990098019F0125
:100770009E019D01831603136E08831203179C00CC
:10078000031334237A080317970079089600780832
:1007900095007708940017089B0016089A00150822
:1007A0009900140898009F019E0106309D00773043
:1007B0009C00031334237A080317970079089600E6
:1007C0007808950077089400F430940701300318F6
:1007D00002309507003003180130960700300318E7
:1007E00001309707831017089B0016089A00150818
:1007F0009900140898009F019E0103309D00E83085
:100800009C00031360237A08031793007908920071
:1008100078089100770890009B019A0183160313D2
:100820006D08831203179900831603136C08831253
:100830000317980013089F0012089E0011089D00DE
:1008400010089C00031334237A08031797007908D3
:10085000960078089500770894000310130CFA00AE
:10086000120CF900110CF800100CF700940778082E
:100870000318780F950779080318790F96077A08F7
:1008800003187A0F9707831017089B0016089A0021
:1008900015089900140898009F019E0103309D00DF
:1008A000E8309C000313602308008316911491180C
:1008B000572C83122C088316EC008312B020831669
:1008C0006808EC008312B0207808B70083169114F2
:1008D0009118682C83122C0801388316EB00EC0069
:1008E0008312B0200130F700C22078088316EC0193
:1008F000EB00EA00E901F7018312C22078088316B1
:10090000E9046908F8006A08F900831208008316F0
:100910006A08EC00ED01EE016B08EF00FA01F70048
:10092000F7080319982C0310EC0DED0DF70B932C21
:1009300001306C07F8006D08FA000318FA0A7A080B
:10094000F9008312080083166408F8006508FA00AD
:100950006408E6006508E700E80183120E238316A9
:1009600066088400831367188317840A8001840350
:100970007808800004306407F8006508FA0003185E
:10098000FA0A7808E6007A08E7004630E9008312A0
:10099000D220013078078316E800660884008313AC
:1009A00067188317840A80018403680880000A306E
:1009B0006407F8006508FA000318FA0A7808E600E8
:1009C0007A08E700043064078400831365188317EE
:1009D000840A0008E90084030008E8006408840031
:1009E000831365188317840A0008EB00840300084A
:1009F000EA006908ED006808EC006A08EE0083125E
:100A0000B123831666088400831367188317770859
:100A10008000840A78088000840A79088000840AAB
:100A20007A08800006306407F8006508FA000318A9
:100A3000FA0A7808E6007A08E7005130E8008312E5
:100A4000552479088316E9007808E8006908EB0066
:100A50006808EA00831287248316660884008313DB
:100A600067188317840A7908800084037808800057
:100A70000E306407F8006508FA000318FA0A7808CF
:100A8000E6007A08E70006306407840083136518DF
:100A90008317840A0008E90084030008E80064085A
:100AA0008400831365188317840A0008EB0084030D
:100AB0000008EA006908ED006808EC006A08EE002A
:100AC0008312B12383166608840083136718831783
:100AD00077088000840A78088000840A79088000FA
:100AE000840A7A08800002306407F8006508FA007A
:100AF0000318FA0A7808E6007A08E7000130E800EF
:100B000083120E23831666088400831367188317E5
:100B1000840A800184037808800008306407F800A4
:100B20006508FA000318FA0A7808E6007A08E70070
:100B30007130E8008312552479088316E90078089B
:100B4000E8006908EB006808EA008312872483162E
:100B500066088400831367188317840A7908800065
:100B60008403780880006208840083136318831765
:100B7000801DF42D08306407F8006508FA0003189A
:100B8000FA0A7808E6007A08E7006608840083130A
:100B900067188317840A0008E90084030008E80046
:100BA000063064078400831365188317840A0008DD
:100BB000FA00840300086802F7007A08031C7A0F21
:100BC000E32D6908E42D6902FA007708E8007A0845
:100BD000E90066088400831367188317840A69088C
:100BE000800084036808800012306407F8006508FC
:100BF000FA000318FA0A7808E6007A08E7000830D5
:100C000064078400831365188317840A0008E900C9
:100C100084030008E8000230640784008313651829
:100C20008317840A0008EB0084030008EA006908BF
:100C3000ED006808EC006A08EE008312B123831609
:100C40006608840083136718831777088000840A76
:100C500078088000840A79088000840A7A08800075
:100C60008312080003179B019A010930990098012B
:100C70009F019E019D0183160313660883120317CB
:100C80009C00031334237A088316EE007908ED00E4
:100C90007808EC007708EB006E08831203179B00BE
:100CA000831603136D08831203179A008316031328
:100CB0006C08831203179900831603136B088312C1
:100CC000031798009F019E0106309D0077309C001D
:100CD000031334237A088316EE007908ED007808B0
:100CE000EC007708EB00F430EB070130031802301A
:100CF000EC07003003180130ED0700300318013015
:100D0000EE0783106E08831203179B0083160313EC
:100D10006D08831203179A00831603136C0883125D
:100D200003179900831603136B08831203179800A7
:100D30009F019E0103309D00E8309C000313602357
:100D40007A088316EA007908E9007808E80077084D
:100D5000E7006508831203179B00831603136408DA
:100D6000831203179A008316031363088312031771
:100D700099008316031362088312031798009F01DA
:100D80009E0103309D00E8309C00031334237A0851
:100D90008316EE007908ED007808EC007708EB0088
:100DA00003106A0CFA00690CF900680CF800670C73
:100DB000F700EB0778080318780FEC077908031899
:100DC000790FED077A0803187A0FEE0783106E0883
:100DD000831203179B00831603136D0883120317F6
:100DE0009A00831603136C08831203179900831665
:100DF00003136B08831203179800831603136A0802
:100E0000831203179F0083160313690883120317C5
:100E10009E00831603136808831203179D00831630
:100E200003136708831203179C0003136023080051
:100E30008316E701E601E501E401E901E801E208C2
:100E4000031D252FE30803195F2F01306202E40020
:100E50006308E5000030031C0130E502E601E7010C
:100E6000EA016508EB006608EC006708ED00EA0897
:100E7000031D432FEB08031D432FEC08031D432FD5
:100E8000ED0803194C2F0310E70CE60CE50CE40CFD
:100E9000E80A0319E90A302F6808EB00EA01640840
:100EA000F700F801F901FA0177086A04F7007808F9
:100EB0006B04F800F9007708F800622F622F003009
:100EC000F800F9008312080083163D080138BE00BF
:100ED000BF013E08C0008312F8203D08B1003C0865
:100EE000B00013308316E9008312D2207808073946
:100EF000031DA52FAD08031D802FAE080319A42FD5
:100F000030083C028316BE0083123D088316BF00E2
:100F100083123108031C310F8E2F912F8316BF02CD
:100F200083122E0883163F020318982F8312A42FD2
:100F3000031DA02F3E0883122D020318A42F831631
:100F40000030F800B42F8312712F0B308316BF00CE
:100F50000130C0008312F8208316BF01C001831244
:100F6000F8200130F800831683120800831611144C
:100F70001118B82FB030EC008312B0200230831665
:100F8000EC008312B020DF015F088316EC008312AF
:100F9000B0205E08DF008316EC008312B0208316B9
:100FA00011151119D12F83120800DE080319DF2F44
:100FB000FF3095001708CF3930389700E02F9501A2
:100FC0000800DE01D5271430DE00FA30DF009C2057
:100FD000DE0BE52F0130DE00D5270C30DE00E130DE
:0E0FE000DF009C20DE0BEF2F8A150A12C22FB5
:101000008316C008031D1428BF08031D14283E08BA
:101010004E3C031C1428031D11283D081F3C031CD3
:1010200014280030F8004A29DB01DA010830D90021
:10103000E830D800E301C130E2008A118312702247
:101040008A158316E301C130E200E501C230E400F5
:101050008A118312A3248A158316411C52284E300C
:101060004C07F7004D08F800023003180330F8076A
:101070004E08F900003003180130F9074F08FA0054
:10108000003003180130FA077708D80778080318EA
:10109000780FD90779080318790FDA077A08031847
:1010A0007A0FDB07411D7D28B2304C07F7004D0851
:1010B000F800023003180330F8074E08F90000303A
:1010C00003180130F9074F08FA0000300318013007
:1010D000FA070310F70DF80DF90DFA0D7708D80788
:1010E00078080318780FD90779080318790FDA07F9
:1010F0007A0803187A0FDB07A228C11CA2289430B3
:101100004C07F7004D08F800023003180330F807C9
:101110004E08F900003003180130F9074F08FA00B3
:10112000003003180130FA077708D8077808031849
:10113000780FD90779080318790FDA077A080318A6
:101140007A0FDB07C11DC72894305007F7005108FC
:10115000F800023003180330F8075208F900003095
:1011600003180130F9075308FA0000300318013062
:10117000FA077708D80778080318780FD90779088D
:101180000318790FDA077A0803187A0FDB07411E74
:1011900048292630D807023003180330D907003019
:1011A00003180130DA07003003180130DB0740086C
:1011B0005B02031CF028031DED283F085A02031CA4
:1011C000F028031DED283E085902031CF028031DDA
:1011D000ED2858083D020318F0280030F8004A298D
:1011E00058083D02DC003E08DD005908031C590F79
:1011F000DD023F08DE005A08031C5A0FDE024008D9
:10120000DF005B08031C5B0FDF025F08E5005E0880
:10121000E4005D08E3005C08E2004408E6008A118F
:10122000831232268A1578088316E1007708E000D9
:10123000C11D20294808E00749080318490FE107A4
:101240006108E3006008E2008A11831218278A15FA
:1012500079088316E3007808E2007130E40063083F
:10126000E6006208E5008A11831253218A1583166D
:1012700040088312B60083163F088312B500831618
:101280003E088312B40083163D088312B300831610
:101290000130F800831208000A308316BF000430C2
:1012A000C0008A118312F8208A1584308316E90061
:1012B0008A118312D2208A157808EF39EA00843027
:1012C0008316BF0083126A088316C0008A11831236
:1012D000F8208A150B308316BF000130C0008A1138
:1012E0008312F8208A15EE01ED010B30EC00363048
:1012F000EB008316E3016A30E2008A118312702248
:101300008A158316E3016A30E200E501A030E400AB
:101310008A118312A3248A156A1CB3294E308316BE
:101320002A07F7002B08F800023003180330F807EB
:101330002C08F900003003180130F9072D08FA00D5
:10134000003003180130FA0777088312EB0778089A
:101350000318780FEC0779080318790FED077A085E
:1013600003187A0FEE076A1DE029B23083162A07A8
:10137000F7002B08F800023003180330F8072C0898
:10138000F900003003180130F9072D08FA00003089
:1013900003180130FA070310F70DF80DF90DFA0DD7
:1013A00077088312EB0778080318780FEC077908A1
:1013B0000318790FED077A0803187A0FEE07072A4A
:1013C000EA1C072A943083162A07F7002B08F80036
:1013D000023003180330F8072C08F9000030031816
:1013E0000130F9072D08FA00003003180130FA0720
:1013F00077088312EB0778080318780FEC07790851
:101400000318790FED077A0803187A0FEE07EA1D23
:101410002E2A943083162E07F7002F08F80002308A
:1014200003180330F8073008F900003003180130C2
:10143000F9073108FA00003003180130FA0777087D
:101440008312EB0778080318780FEC077908031864
:10145000790FED077A0803187A0FEE076A1E552AEE
:10146000263083163207F7003308F80002300318DD
:101470000330F8073408F900003003180130F90789
:101480003508FA00003003180130FA077708831294
:10149000EB0778080318780FEC0779080318790F21
:1014A000ED077A0803187A0FEE076E08B6006D088C
:1014B000B5006C08B4006B08B3006B08F7006C084B
:1014C000F8006D08F9006E08FA007A08B60079088D
:1014D000B5007808B4007708B30001308316BF0068
:1014E000E830C0008A118312F8208A153608831666
:1014F000C000831235088316BF0083123408831698
:10150000BE00831233088316BD0083120020013011
:101510008316BF00C0008A118312F8208A1540305C
:101520008316BD008A11831264278A15F808031DEB
:101530009C2A0030F800BC2A01308316BF0002301C
:10154000C0008A118312F8208A158316BD018A1102
:10155000831264278A15F808031DB12A0030F800A9
:10156000BC2A01308316BF00E830C0008A11831204
:10157000F8208A150130F8008A110A16AC2D0310E4
:101580005F0CFF3EE0008316E3016130E2008A1148
:10159000831270228A158316E3016130E200E501AF
:1015A000A030E4008A118312A3248A15DE08031DEB
:1015B000922B5F080C3A0319E72A023A0319F12A21
:1015C0001E3A0319FB2A023A0319052B0F2B573039
:1015D0008316BF001830C0008A118312F8208A15C4
:1015E000122B57308316BF003030C0008A1183128F
:1015F000F8208A15122B57308316BF004030C000E8
:101600008A118312F8208A15122B57308316BF00D7
:101610005030C0008A118312F8208A15122B003036
:10162000F800272D56308316BF000830C0008A11FD
:101630008312F8208A1550308316BF008312600889
:101640008316C0008A118312F8208A158316310888
:10165000E5003008E4002F08E3002E08E2008312C2
:101660005F088316E6008A11831232268A157808ED
:10167000E3007708E20063088316E3008312620840
:101680008316E2008A11831218278A157908EA0066
:101690007808E90051308316E40083127908831634
:1016A000E600831278088316E5008A11831253211D
:1016B0008A1583162D08E5002C08E4002B08E300AA
:1016C0002A08E20083125F088316E6008A1183125B
:1016D00032268A157808E5007708E4006508003CA2
:1016E00003187B2BFF3A031D792B6408003C031879
:1016F0007B2BFF30852B01306402F7006508FA0070
:101700000030031C0130FA027708E90046308316E6
:10171000BF00831269088316C0008A118312F82063
:101720008A15F12C5E0BEE2C5F08083A0319A22BE8
:10173000023A0319E02B063A03191F2C023A031947
:101740005E2C9C2C48308316BF001030C0008A11DC
:101750008312F8208A1547308316BF000830C00076
:101760008A118312F8208A1532308316BF000230A6
:10177000C0008A118312F8208A1530308316BF000A
:101780000C30C0008A118312F8208A15FF308316AE
:10179000BF000130C0008A118312F8208A15303052
:1017A0008316BF00C0008A118312F8208A15FF300B
:1017B0008316BF00C0018A118312F8208A159F2C5E
:1017C00048308316BF002830C0008A118312F820E9
:1017D0008A1547308316BF000830C0008A11831273
:1017E000F8208A1532308316BF000330C0008A11FA
:1017F0008312F8208A1530308316BF000930C000EC
:101800008A118312F8208A15FF308316BF00013039
:10181000C0008A118312F8208A1530308316BF0069
:101820002030C0008A118312F8208A15FF308316F9
:10183000BF00C0018A118312F8208A159F2C4830FE
:101840008316BF003830C0008A118312F8208A1531
:1018500047308316BF000830C0008A118312F82079
:101860008A1532308316BF000330C0008A118312FC
:10187000F8208A1530308316BF000830C0008A1166
:101880008312F8208A15FF308316BF000130C00094
:101890008A118312F8208A1530308316BF00203059
:1018A000C0008A118312F8208A15FF308316BF000A
:1018B000C0018A118312F8208A159F2C48308316A4
:1018C000BF00C0008A118312F8208A1547308316A2
:1018D000BF000830C0008A118312F8208A15323008
:1018E0008316BF000330C0008A118312F8208A15C6
:1018F00030308316BF000730C0008A118312F820F1
:101900008A15FF308316BF000130C0008A11831290
:10191000F8208A1530308316BF002030C0008A11AD
:101920008312F8208A15FF308316BF00C0018A1188
:101930008312F8208A159F2C0030F800272D703074
:101940008316BF00831260088316C0008A118312B9
:10195000F8208A1583163508E5003408E4003308BA
:10196000E3003208E20083125F088316E6008A1162
:10197000831232268A157808E7007708E600E11D11
:10198000CF2C831626088312E60783162708031830
:10199000270FCB2CCE2C8312E70783168312670800
:1019A0008316E300831266088316E2008A1183120D
:1019B00018278A157908EA007808E900713083163B
:1019C000E400831279088316E600831278088316F0
:1019D000E5008A11831253218A15F12C0030F8009A
:1019E000272D36088316C000831235088316BF00E2
:1019F000831234088316BE00831233088316BD0099
:101A00008312002001308316E9008A118312D2204C
:101A10008A157808E80001308316BF000230C00044
:101A20008A118312F8208A158316BD018A11831248
:101A300064278A1501308316BF0083126808831655
:101A4000C0008A118312F8208A150130F8000800BE
:101A50000408E2003B30E9009A30E800CA30E700B1
:101A6000E6010A30E40083145E30840083136108C9
:101A700003179B000313600803179A0003135F0802
:101A80000317990003135E080317980003136908EE
:101A900003179F000313680803179E0003136708CA
:101AA00003179D000313660803179C008A11031394
:101AB00060238A157808F708031D712D6408013A20
:101AC0000319712D62080319722D0F39640203196D
:101AD0006B2D0318782DE21B782D621B722D2030A0
:101AE000732DE2013030F70777080C1E752D990031
:101AF0008310690803179B000313680803179A00F3
:101B00000313670803179900031366080317980067
:101B10009F019E019D010A309C008A1103136023DE
:101B20008A157A08E9007908E8007808E70077085C
:101B3000E600E40B332D080080308316BF0001302F
:101B4000C0008A118312F8208A15FF308316BF0067
:101B50000130C0008A118312F8208A158316BF0154
:101B6000C0018A118312F8208A1591308316BF00B4
:101B7000831232088316C0008A118312F8208A1556
:101B80008316BF010130C0008A118312F8208A1524
:101B9000FF308316BF00C0018A118312F8208A1516
:101BA00080308316BF00C0018A118312F8208A1585
:101BB0008316BF010130C0008A118312F8208A15F4
:101BC0003D08B1003C08B0008316E9018A11831278
:101BD000D2208A15781C0B2EAD08031DF22DAE08FD
:101BE00003190A2E30083C02DE003D08DF003108F0
:101BF000031C310FDF022E085F02031C0A2E031D97
:101C0000052E5E082D0203180A2E2F14FF30F8004F
:101C1000F900522EE42D3D08B1003C08B00013300D
:101C20008316E9008A118312D2208A1578080739B1
:101C3000031D392EAD08031D202EAE080319382EC2
:101C400030083C02E0003D08E1003108031C310F80
:101C5000E1022E086102031C382E031D332E60089A
:101C60002D020318382E2F14FF30F800F900512EE2
:101C70000F2E1E308316E8008A11831255248A1510
:101C80007908DF007808DE000B308316BF000130D2
:101C9000C0008A118312F8208A155E08F8005F08D8
:101CA000F9007908CF01CE017908CD007808CC0081
:101CB0005B084F02031C802E031D6E2E5A084E0235
:101CC000031C802E031D6E2E59084D02031C802E0E
:101CD000031D6E2E58084C02031C802E0130DE00BE
:101CE0008A11D5278A1583160613831206173F0813
:101CF000D7003E08D6003D08D5003C08D400B32EDE
:101D000054083C02DE003D08DF005508031C550F57
:101D1000DF023E08E0005608031C560FE0023F08B1
:101D2000E1005708031C570FE10243086102031C3E
:101D3000B32E031DAB2E42086002031CB32E031DFD
:101D4000AB2E41085F02031CB32E031DAB2E4008CF
:101D50005E02031CB32E8316061383120613DE01E4
:101D60008A11D5278A153A08043C031DE02E3B084A
:101D7000043C0319DF2E0A30D80700300318013065
:101D8000D907003003180130DA070030031801309A
:101D9000DB075808DE008A11B6278A154130840017
:101DA0005B08E1005A08E0005908DF005808DE002F
:101DB00028250A300C1EDA2E99000430BB002A2F89
:101DC0003A08023C031D0D2F3B08023C03190C2F5F
:101DD0000A30D8020030031C0130D9020030031C45
:101DE0000130DA020030031C0130DB025808DE004B
:101DF0008A11B6278A15413084005B08E1005A0831
:101E0000E0005908DF005808DE0028250A300C1EC3
:101E1000072F99000230BB002A2F3A0B292FDB0134
:101E2000DA01D9014630D8005808DE008A11B627F9
:101E30008A15413084005B08E1005A08E000590827
:101E4000DF005808DE0028250A300C1E252F9900D7
:101E50002A2FBB01DB08031D3C2FDA08031D3C2F92
:101E6000D908031D3C2F5808133C031C3C2FDB01F1
:101E7000DA01D9011430D800DB08031D492FDA0834
:101E8000031D492FD908031D492F5808A03C0318EA
:101E90004E2FDB01DA01D9019630D8008A150A12DB
:101EA000C42F03081F398300713083168F009001FF
:101EB0000F08031787110C3003139900A230980004
:101EC000903083129800FF30AB00AB152B088316BF
:101ED000870083122B162B0883168700133093007C
:101EE0002830831294008316941714138312B901B7
:101EF000B801BA01BB01AF10BF01BE01BD01BC01F9
:101F0000C301C201C1010A30C000C701C601C50139
:101F1000C401CB01CA01C901C801CF01CE01CD0165
:101F2000CC01D301D201D101D001D701D601D50115
:101F3000D401DB01DA01D9015A30D800DD01DC011E
:101F4000831603170908C039890003131F129F1253
:101F500000300317880083128701880189018313E9
:101F60000A168A11031300280A128A156F30DE0040
:101F70008A11B6278A15C830DF008A119C208A157D
:0C1F80008A11E12F8A159C2DC32F6300ED
:10200000831603170908C039890003131F129F1292
:102010000130031788000030F800831203131F08F3
:10202000C33978049F001F179F1783169F178312C9
:102030001F140830DE00FA30DF000A129C200A1656
:10204000DE0B1B28353090008E01FF308F000630EC
:102050008E0083160C1483128B158316961583122B
:102060008B158316161683128B1583169616C030A1
:1020700083128B042B112B08831687008312071100
:102080000C30970083169B019C0101309D00383075
:10209000F8000638831292007C3083169200831277
:1020A00095011708CF399700831603170908C0391F
:1020B000890003131F129F12013003178800831237
:1020C00003131F179F1783169F1783121F14DE0019
:1020D0005230AC00AE01AD012F10DE080319852887
:1020E00089308316E9000A128312D2200A16780872
:1020F0000138EA0089308316BF0083126A0883160C
:10210000C0000A128312F8200A1688308316BF0016
:10211000C0010A128312F8200A1680308316BF000D
:102120000130C0000A128312F8200A16FF3083160D
:10213000BF000130C0000A128312F8200A1683166D
:10214000BF01C0010A128312F8200A1691308316CB
:10215000E9000A128312D2200A167808B200831608
:10216000BF010130C0000A128312F8200A16FF30A6
:102170008316BF00C0010A128312F8200A168030AD
:102180008316BF00C0010A128312F8200A166030BD
:102190008316E9000A128312D2200A167808123830
:1021A000EA0060308316BF0083126A088316C000FD
:1021B0000A128312F8200A16ED01EC01EB017D30C2
:1021C000EA000A127B210A1601308316BF00FF3095
:1021D000C0000A128312F8200A16EB015F30EA00F1
:1021E000ED016030EC0080308316BF000130C0008C
:1021F0000A128312F8200A16FF308316BF0001303E
:10220000C0000A128312F8200A168316BF01C0010B
:102210000A128312F8200A16FF308316BF00063018
:10222000C0000A128312F8200A1683308316E900D0
:102230000A128312D2200A1678080438EF0083307D
:102240008316BF0083126F088316C0000A12831220
:10225000F8200A16FF308316BF000730C0000A12AC
:102260008312F8200A1681308316BF000130C000A7
:102270000A128312F8200A1680308316BF0001303C
:10228000C0000A128312F8200A1694308316BF0089
:102290006B30C0000A128312F8200A1683308316AE
:1022A000BF00C0010A128312F8200A163D08B100CF
:1022B0003C08B00083308316E9000A128312D22052
:1022C0000A16F808031D8129AD08031D6A29AE0806
:1022D0000319802930083C02EF003D08F000310866
:1022E000031C310FF0022E087002031C8029031D0D
:1022F0007D296F082D02031880290030F800EE298F
:102300005A2983308316BF000130C0000A1283129D
:10231000F8200A1692308316E9000A128312D2209E
:102320000A167808EE006A08840083136B18831776
:102330006E087F3980006C08840083136D18831742
:10234000F701EE1B7714770801398000813083167E
:10235000BF00C0010A128312F8200A16FF3083164C
:10236000BF000630C0000A128312F8200A1683301C
:102370008316E9000A128312D2200A167808EF00A9
:1023800083308316BF00831278088316C0000A12B8
:102390008312F8200A16FF308316BF000130C000F8
:1023A0000A128312F8200A168316BF010130C000FA
:1023B0000A128312F8200A16FF308316BF00C001EC
:1023C0000A128312F8200A1680308316BF00C0015B
:1023D0000A128312F8200A160130F800F808031DCB
:1023E000F4290030F800AF2DB030EA00EC01613084
:1023F000EB000630ED00831611141118FD2983122D
:102400002C088316EC000A128312B0200A166A0800
:102410008316EC000A128312B0200A167808B7005F
:10242000831691149118122A83122C080138EE0099
:102430008316EC000A128312B0200A166D08ED0311
:10244000013C0318352A6C08FA006B08EB0A0319E3
:10245000EC0A840083137A1883170130F7000A12FC
:10246000C2200A16780880001E2A6C08FA006B0841
:10247000EB0A0319EC0A840083137A188317F70117
:102480000A12C2200A167808800083161115111945
:10249000472AFF30BF000130C0000A128312F82023
:1024A0000A164F308316BF00C0010A128312F820AB
:1024B0000A164E308316BF002C30C0000A12831259
:1024C000F8200A16FF308316BF00C0010A128312DB
:1024D000F8200A16B6308316BF00B430C0000A12C6
:1024E0008312F8200A16E0080319782A0C30792A9A
:1024F0000030E700E801E90169082F3C031CC22A0B
:1025000067086902031C882A5F086802031DA32A62
:10251000690CF700F70CF70C1F30F7057708613EE0
:102520008400831369080739F8000130F700F808C0
:1025300003199E2A0310F70DF80B9A2A7708FF3A21
:1025400000058000C02A690CF700F70CF70C1F305B
:10255000F7057708613E840083130008EA006908E4
:102560000739F8006A08F700F8080319BB2A0310B6
:10257000F70CF80BB72A770801390319C02AE80AC3
:10258000E90A7C2AB030EA00EC016130EB00063049
:10259000ED00831691149118CB2A83122C08831610
:1025A000EC000A128312B0200A166A088316EC00A7
:1025B0000A128312B0200A166D08ED03003A0319BF
:1025C000F62A6C08FA006B08EB0A0319EC0A84007F
:1025D00083137A1883170008EE008316EC000A12A2
:1025E0008312B0200A167808B700DC2A831611156A
:1025F0001119F82AFF30BF000130C0000A128312FF
:10260000F8200A168316BF01C0010A128312F820AF
:102610000A16FF308316BF00C0010A128312F82089
:102620000A1609308316BF00C0010A128312F8206F
:102630000A1610308316BF00C0010A128312F82058
:102640000A1611308316BF00C0010A128312F82047
:102650000A1624308316BF000130C0000A1283120C
:10266000F8200A1625308316BF00FF30C0000A127A
:102670008312F8200A1675308316BF00C0010A12B3
:102680008312F8200A16FF308316BF000130C00005
:102690000A128312F8200A164E308316BF002C301F
:1026A000C0000A128312F8200A1648308316BF00B1
:1026B000C0010A128312F8200A1630308316BF00B8
:1026C0002030C0000A128312F8200A16FF30831649
:1026D000BF00C0010A128312F8200A163030831698
:1026E000BF000930C0000A128312F8200A165430C5
:1026F0008316BF00C0010A128312F8200A16313077
:102700008316BF000430C0000A128312F8200A1694
:1027100032308316BF000330C0000A128312F82043
:102720000A1640308316BF008330C0000A1283129D
:10273000F8200A1646308316BF002530C0000A1262
:102740008312F8200A1660308316BF00C0010A12F7
:102750008312F8200A1627308316BF00C0010A1220
:102760008312F8200A1650308316BF000630C000CE
:102770000A128312F8200A1651308316BF00C001D6
:102780000A128312F8200A1652308316BF009630C0
:10279000C0000A128312F8200A1656308316BF00B2
:1027A0000830C0000A128312F8200A165730831628
:1027B000BF003030C0000A128312F8200A166130C0
:1027C0008316BF00C0010A128312F8200A16623075
:1027D0008316BF00C0010A128312F8200A16643063
:1027E0008316BF00C0010A128312F8200A16653052
:1027F0008316BF00C0010A128312F8200A16663041
:102800008316BF00A030C0000A128312F8200A16F7
:10281000FF308316BF000130C0000A128312F82077
:102820000A1622308316BF003230C0000A1283120B
:10283000F8200A1647308316BF001430C0000A1271
:102840008312F8200A1649308316BF00FF30C000FB
:102850000A128312F8200A164A308316BF00C001FC
:102860000A128312F8200A16FF308316BF00C00137
:102870000A128312F8200A167A308316BF000A3033
:10288000C0000A128312F8200A167B308316BF009C
:10289000C0010A128312F8200A1678308316BF008E
:1028A0002130C0000A128312F8200A16FF30831666
:1028B000BF000130C0000A128312F8200A1623302C
:1028C0008316BF003430C0000A128312F8200A16A3
:1028D00042308316BF00C0010A128312F8200A1684
:1028E00044308316BF00FF30C0000A128312F82064
:1028F0000A1645308316BF002630C0000A12831224
:10290000F8200A1646308316BF000530C0000A12B0
:102910008312F8200A1640308316BF00C0000A1246
:102920008312F8200A160E308316BF000630C0004E
:102930000A128312F8200A1620308316BF001A30BC
:10294000C0000A128312F8200A1643308316BF0013
:102950004030C0000A128312F8200A16FF30831696
:10296000BF00C0010A128312F8200A163430831601
:10297000BF000330C0000A128312F8200A16353057
:102980008316BF004430C0000A128312F8200A16D2
:10299000FF308316BF000130C0000A128312F820F6
:1029A0000A1631308316BF000430C0000A128312A9
:1029B000F8200A164B308316BF000930C0000A12F7
:1029C0008312F8200A164C308316BF000530C00071
:1029D0000A128312F8200A164D308316BF00043005
:1029E000C0000A128312F8200A16FF308316BF00B7
:1029F000C0010A128312F8200A1644308316BF0061
:102A0000C0010A128312F8200A1645308316BF004F
:102A10002030C0000A128312F8200A1647308316AD
:102A2000BF000830C0000A128312F8200A1648308E
:102A30008316BF002830C0000A128312F8200A163D
:102A400067308316BF00C0010A128312F8200A16ED
:102A500070308316BF000430C0000A128312F820C1
:102A60000A1671308316BF000130C0000A128312AB
:102A7000F8200A1672308316BF00FE30C0000A121A
:102A80008312F8200A1676308316BF00C0010A129E
:102A90008312F8200A1677308316BF00C0010A128D
:102AA0008312F8200A16FF308316BF000130C000E1
:102AB0000A128312F8200A160D308316BF00013067
:102AC000C0000A128312F8200A16FF308316BF00D6
:102AD000C0010A128312F8200A1680308316BF0044
:102AE0000130C0000A128312F8200A160130831642
:102AF000BF00F830C0000A128312F8200A16FF3017
:102B00008316BF000130C0000A128312F8200A1693
:102B10008E308316BF000130C0000A128312F820E5
:102B20000A168316BF010130C0000A128312F82072
:102B30000A16FF308316BF00C0010A128312F82064
:102B40000A1680308316BF00C0010A128312F820D3
:102B50000A160A128A154C290A168A117808DF010A
:102B6000C830DE005F08AE005E08AD00CD30ED007D
:102B7000CC30EC004C30EB007B30EA000A127B21B9
:102B80000A16DE011230DF000A128A15BF220A1669
:102B90008A110130DE000E30DF000A128A15BF22D2
:102BA0000A168A118316C001BF014E30BE002030C4
:102BB000BD000A128A15831200200A168A118A158E
:042BC0000A12B42F12
:04400E00C42FFF3F7D
:00000001FF
;PIC16F886
;CRC=8FF4  CREATED="26-เม.ย.-19 15:14"
