:1000000007308A00492F0000FF00030E8301A10082
:100010000A08A0008A010408A2007708A300780853
:10002000A4007908A5007A08A60003170D08031399
:10003000A70003170F080313A80003170C080313E6
:10004000A90003170E080313AA00831383128C3030
:100050008400001C2D280C184E2822088400230838
:10006000F7002408F8002508F9002608FA002708F8
:1000700003178D000313280803178F0003132908A3
:1000800003178C0003132A0803178E00031320089C
:100090008A00210E8300FF0E7F0E09008A110A12CA
:1000A00051288E01FF308F0006308E000130B807D6
:1000B0000318B90A0319BA0A0319BB0A0C108A11EA
:1000C0000A122D28533A6139F434EE330D0500003D
:1000D000202AC926C527552A0D0500000B08BE0099
:1000E0008B13831603178C170C1400000000831267
:1000F0000313BE1B8B1703170C087F390319C42881
:100100000313BE0003170D080313BF0003170F08E6
:100110000313C0003E080C1E8B2899003F080317EC
:100120008D000313400803178F0003130B08C10051
:100130008B13831603178C170C1400000000831216
:100140000313C11B8B1703170C0D0E0D7F390319F9
:10015000C4280313BE0003170D080313BF000317C1
:100160000F080313C0003E080C1EB42899003F0876
:1001700003178D000313400803178F008D0A03191E
:100180008F0A03136E2803170313080094138C11AE
:1001900083164A08831293000230941BD6288C1DC4
:1001A000CF2800308316111B01308312F80008009D
:1001B0001413831691159119DB2877189112771C67
:1001C00091161116111AE22883121308F80008007C
:1001D000831611141118EA2883122C088316CA00FA
:1001E0008312C62083164708CA008312C6207808E7
:1001F000B700831691149118FB2883122C0801383C
:100200008316C900CA008312C620F701D8207808D7
:100210008316C8004808F8008312080083161114DA
:100220001118102983122C088316CA008312C620C5
:1002300061088316CA008312C62062088316CA00AA
:100240008312C6207808B7008316111511192629C4
:10025000831208004F08D6005308D606D61F35294A
:1002600003110310CF1B031468294F08D60052084E
:10027000D7004E08D70203194329D61F682903085F
:10028000013A830068295308D7004F08D7020319A1
:100290004F29D61F68290308013A830068295408AA
:1002A000D7005008D70203195B29D61F6829030815
:1002B000013A830068295508D7005108D70203196D
:1002C0006729D61F68290308013A830068290310AB
:1002D00008008316111411186B2983122C08831639
:1002E000CA008312C62083164208CA008312C620A1
:1002F00083164408C500C601C6014408CA0083121B
:10030000C62083164308C500C6014308CA008312ED
:10031000C6207808B7008316111511198D2983128C
:1003200008004D08D1004C08D0004B08CF004A0807
:10033000CE00D501D401D301D2012A210318B3295B
:10034000B830D100FE30D0007F30CF008730CE00F3
:100350004D08D5004C08D4004B08D3004A08D20001
:100360002A21031CB6290030F800702A4D08D1005C
:100370004C08D0004B08CF004A08CE00D501D4016C
:10038000D3018630D2004E080319332AD600520812
:100390000319332AD6070318D4297F30D602031C49
:1003A000332A0319332AD8298130D6070318332A70
:1003B0005608F700F801F901FA014F08DA00DA17D8
:1003C0005008D9005108D8001830D600D701581C61
:1003D000012A5508FA07031CF329F90A031DF3291A
:1003E000F80A0319D7175408F907031CFA29F80A61
:1003F0000319D7175308D000D0175008F80703186F
:10040000D717D70DF80CF90CFA0CDA0CD90CD80C5C
:100410000310D60BE6290130F7070318332AF81B1F
:10042000182ADA0DFA0DF90DF80DF7030319332A1E
:10043000DA1F292AFA0A031D292AF90A031D292A83
:10044000F80A031D292AF80CF90CFA0CF70A03190B
:10045000332A4F08D7005308D706D71F312AF81779
:10046000372AF813372AF701F801F901FA017A0857
:10047000D1007908D0007808CF007708CE008E3000
:10048000F7004E08F7024F08F9005008F800F91776
:10049000F7080319562A0310F908031D522AF80811
:1004A0000319562AF90CF80CF70B4B2ACF1F5D2ABB
:1004B000F809F909F80A0319F90A7908CF00780848
:1004C000CE0044308316C200831279088316C4001C
:1004D000831278088316C300831269210130F80063
:1004E000080001308316C7008312E82078088316BD
:1004F000C2004108FA004008C3004108C400420E8F
:10050000F7000F30F70577080139F80078188F2ABF
:10051000430884008313441883170010952A430866
:10052000840083134418831700144008F80041081E
:10053000FA007808C3004108C400420CF700F70C29
:10054000F70C1F30F70577080139F8007818AF2A43
:10055000430884008313441883170011B52A430805
:10056000840083134418831700154108FA004008DB
:10057000C3004108C400420CF700F70C3F30F705F8
:1005800077080139F8007818CC2A430884008313CF
:10059000441883178010D22A430884008313441818
:1005A000831780144008F8004108FA007808C30057
:1005B0004108C400420EF700F70CF70C0330F705B2
:1005C00077080139F8007818EC2A4308840083136F
:1005D000441883178011F22A4308840083134418B7
:1005E000831780154108FA004008C3004108C40081
:1005F000F701C21B771477080139F8007818072B28
:100600004308840083134418831700120D2B4308FA
:10061000840083134418831700168312080083167E
:10062000C608031D212B5030C7008312E82001307B
:100630007807F7000310F70D7708F800342B342BF8
:100640008316460B312B7030C7008312E82001302F
:100650007807F7000310F70D7708F800342B342BD8
:100660008316FF30F8008312080020308316E10063
:10067000DD01DE01DF01E0015808FA005708F9004A
:100680005608F8005508F7000310771C552B590839
:10069000DD075A0803185A0FDE075B0803185B0FC3
:1006A000DF075C0803185C0FE007E00CDF0CDE0CD2
:1006B000DD0CFA0CF90CF80CF70CE10B442B83124F
:1006C00008008318662BDD3084008313F701F801DE
:1006D000F901FA018316DD01DE01DF01E0015C08AA
:1006E0005B045A0459040319A52B2030E1000310C0
:1006F000D50DD60DD70DD80DDD0DDE0DDF0DE00DBE
:100700005C086002031D8E2B5B085F02031D8E2BAD
:100710005A085E02031D8E2B59085D02031C9F2B95
:100720005908DD025A08031C5A0FDE025B08031C3D
:100730005B0FDF025C08031C5C0FE0020314F70D83
:10074000F80DF90DFA0DE10B772B5D088000840A96
:100750005E088000840A5F088000840A60088000C8
:10076000831208008316D801D7010930D600D501BD
:10077000DC01DB01DA014C08D900831235237A0849
:100780008316D4007908D3007808D2007708D10006
:100790005408D8005308D7005208D6005108D50095
:1007A000DC01DB010630DA007730D9008312352313
:1007B0007A088316D4007908D3007808D200770825
:1007C000D100F430D107013003180230D2070030D5
:1007D00003180130D307003003180130D407831009
:1007E0005408D8005308D7005208D6005108D50045
:1007F000DC01DB010330DA00E830D9008312612329
:100800007A088316D0007908CF007808CE007708E0
:10081000CD00D801D7014B08D6004A08D5005008B2
:10082000DC004F08DB004E08DA004D08D9008312C7
:1008300035237A088316D4007908D3007808D200CB
:100840007708D1000310500CFA004F0CF9004E0C41
:10085000F8004D0CF700D10778080318780FD2077D
:1008600079080318790FD3077A0803187A0FD40789
:1008700083105408D8005308D7005208D6005108F6
:10088000D500DC01DB010330DA00E830D900831247
:10089000612308008316911491184C2C83122C08A4
:1008A0008316CA008312C62083164608CA00831224
:1008B000C6207808B7008316911491185D2C831216
:1008C0002C0801388316C900CA008312C6200130E3
:1008D000F700D82078088316CA01C900C800C701EC
:1008E000F7018312D82078088316C7044708F80058
:1008F0004808F9008312080083164808CA00CB0193
:10090000CC014908CD00FA01F700F70803198D2C36
:100910000310CA0DCB0DF70B882C01304A07F800E5
:100920004B08FA000318FA0A7A08F9008312080043
:1009300083164208F8004308FA004208C40043083E
:10094000C500C60183120F23831644088400831355
:1009500045188317840A80018403780880000430D6
:100960004207F8004308FA000318FA0A7808C4009E
:100970007A08C5004630C7008312E82001307807A6
:100980008316C60044088400831345188317840A1D
:1009900080018403460880000A304207F8004308BB
:1009A000FA000318FA0A7808C4007A08C50004306F
:1009B00042078400831343188317840A0008C70082
:1009C00084030008C6004208840083134318831779
:1009D000840A0008C90084030008C8004708CB0047
:1009E0004608CA004808CC008312B2238316440884
:1009F000840083134518831777088000840A7808D9
:100A00008000840A79088000840A7A088000063011
:100A10004207F8004308FA000318FA0A7808C400ED
:100A20007A08C5005130C60083124A24790883161B
:100A3000C7007808C6004708C9004608C8008312E6
:100A40007C24831644088400831345188317840A82
:100A5000790880008403780880000E304207F8008F
:100A60004308FA000318FA0A7808C4007A08C50097
:100A7000063042078400831343188317840A000852
:100A8000C70084030008C60042088400831343188B
:100A90008317840A0008C90084030008C8004708B7
:100AA000CB004608CA004808CC008312B223831644
:100AB0004408840083134518831777088000840A4C
:100AC00078088000840A79088000840A7A08800007
:100AD00002304207F8004308FA000318FA0A7808BF
:100AE000C4007A08C5000130C60083120F238316A4
:100AF00044088400831345188317840A8001840303
:100B00007808800008304207F8004308FA0003180C
:100B1000FA0A7808C4007A08C5007130C60083124A
:100B20004A2479088316C7007808C6004708C90018
:100B30004608C80083127C2483164408840083136B
:100B400045188317840A7908800084037808800098
:100B500040088400831341188317801DE92D083055
:100B60004207F8004308FA000318FA0A7808C4009C
:100B70007A08C50044088400831345188317840A43
:100B80000008C70084030008C6000630420784003E
:100B9000831343188317840A0008FA0084030008AB
:100BA0004602F7007A08031C7A0FD82D4708D92D82
:100BB0004702FA007708C6007A08C7004408840094
:100BC000831345188317840A470880008403460866
:100BD000800012304207F8004308FA000318FA0AAE
:100BE0007808C4007A08C5000830420784008313DF
:100BF00043188317840A0008C70084030008C6004E
:100C0000023042078400831343188317840A0008C4
:100C1000C90084030008C8004708CB004608CA0082
:100C20004808CC008312B22383164408840083133F
:100C30004518831777088000840A78088000840AA2
:100C400079088000840A7A088000831208008316DD
:100C5000D801D7010930D600D501DC01DB01DA016A
:100C60004408D900831235237A088316CC0079080A
:100C7000CB007808CA007708C9004C08D8004B0898
:100C8000D7004A08D6004908D500DC01DB01063050
:100C9000DA007730D900831235237A088316CC0026
:100CA0007908CB007808CA007708C900F430C90772
:100CB000013003180230CA07003003180130CB0797
:100CC000003003180130CC0783104C08D8004B08C3
:100CD000D7004A08D6004908D500DC01DB01033003
:100CE000DA00E830D900831261237A088316C8003D
:100CF0007908C7007808C6007708C5004308D800FF
:100D00004208D7004108D6004008D500DC01DB01CD
:100D10000330DA00E830D900831235237A088316CD
:100D2000CC007908CB007808CA007708C900031006
:100D3000480CFA00470CF900460CF800450CF70087
:100D4000C90778080318780FCA0779080318790FBC
:100D5000CB077A0803187A0FCC0783104C08D80009
:100D60004B08D7004A08D6004908D5004808DC00DF
:100D70004708DB004608DA004508D90083126123E2
:100D800008008316C501C401C301C201C701C60121
:100D9000C008031DCE2EC1080319082F01304002E0
:100DA000C2004108C3000030031C0130C302C4016B
:100DB000C501C8014308C9004408CA004508CB0062
:100DC000C808031DEC2EC908031DEC2ECA08031D1C
:100DD000EC2ECB080319F52E0310C50CC40CC30C64
:100DE000C20CC60A0319C70AD92E4608C900C80191
:100DF0004208F700F801F901FA0177084804F70002
:100E000078084904F800F9007708F8000B2F0B2F39
:100E10000030F800F900831208005F080138E00094
:100E2000E1016008E2000E213908B1003808B00085
:100E300013308316C7008312E82078080739031D92
:100E40003E2FAD08031D272FAE0803193D2F300894
:100E50003802E0003908E1003108031C310FE102DB
:100E60002E086102031C3D2F031D3A2F60082D023E
:100E700003183D2F0030F800482F182F0B30E100E9
:100E80000130E2000E21E101E2010E210130F80003
:100E9000080003081F398300713083168F0090010A
:100EA0000F08031787110C3003139900A230980024
:100EB000903083129800FF30AB00AB152B088316DF
:100EC000870083122B162B0883168700133093009C
:100ED0002830831294008316941714138312BB01D5
:100EE000BA01B901B801BD01BC0183160317090895
:100EF000C039890003131F129F12003003178800A6
:100F0000831287018801890183130A1603130028BD
:0C0F10000A128A15C02C8A11892F630078
:10100000E208031D1328E108031D132860084E3C65
:10101000031C1328031D10285F081F3C031C132802
:101020000030F8005D29E701E6010830E500E8300E
:10103000E4008316C1016330C0008A11831271225B
:101040008A158316C1016330C000C301A030C200FD
:101050008A11831298248A15631C53284E308316F4
:101060002A07F7002B08F800023003180330F807AE
:101070002C08F900003003180130F9072D08FA0098
:10108000003003180130FA0777088312E407780864
:101090000318780FE50779080318790FE6077A082F
:1010A00003187A0FE707631D8028B23083162A07DA
:1010B000F7002B08F800023003180330F8072C085B
:1010C000F900003003180130F9072D08FA0000304C
:1010D00003180130FA070310F70DF80DF90DFA0D9A
:1010E00077088312E40778080318780FE507790872
:1010F0000318790FE6077A0803187A0FE707A7287D
:10110000E31CA728943083162A07F7002B08F80061
:10111000023003180330F8072C08F90000300318D8
:101120000130F9072D08FA00003003180130FA07E2
:1011300077088312E40778080318780FE507790821
:101140000318790FE6077A0803187A0FE707E31DFB
:10115000CE28943083162E07F7002F08F8000230AF
:1011600003180330F8073008F90000300318013085
:10117000F9073108FA00003003180130FA07770840
:101180008312E40778080318780FE5077908031835
:10119000790FE6077A0803187A0FE707631E5B29C1
:1011A0002630E407023003180330E5070030031847
:1011B0000130E607003003180130E70762086702D4
:1011C000031CF728031DF42861086602031CF72896
:1011D000031DF42860086502031CF728031DF4288A
:1011E00064085F020318F7280030F8005D296408DE
:1011F0005F02E8006008E9006508031C650FE9026A
:101200006108EA006608031C660FEA026208EB0048
:101210006708031C670FEB026B088316C300831279
:101220006A088316C200831269088316C1008312FC
:1012300068088316C0002208C4008A11831227267A
:101240008A157808ED007708EC00E31D3529831630
:1012500026088312EC07831627080318270F312965
:1012600034298312ED07831683126D088316C1009B
:1012700083126C088316C0008A118312C1268A1556
:101280007908EF007808EE0071308316C2008312EF
:101290006F088316C40083126E088316C3008A1178
:1012A000831269218A156208B6006108B5006008DA
:1012B000B4005F08B3000130F80008000A30E10014
:1012C0000430E2008A110E218A1584308316C7008B
:1012D0008A118312E8208A157808EF39CA00843011
:1012E000E1004A08E2008A110E218A150B30E10064
:1012F0000130E2008A110E218A15E401E3010B306E
:10130000E2003630E1008316C1014A30C0008A1184
:10131000831271228A158316C1014A30C000C301AD
:101320004B30C2008A11831298248A154A1CBB29AB
:101330004E305507F7005608F80002300318033006
:10134000F8075708F900003003180130F90758086A
:10135000FA00003003180130FA077708E10778082F
:101360000318780FE20779080318790FE3077A0862
:1013700003187A0FE4074A1DE629B2305507F70033
:101380005608F800023003180330F8075708F90030
:10139000003003180130F9075808FA00003003182C
:1013A0000130FA070310F70DF80DF90DFA0D770863
:1013B000E10778080318780FE20779080318790F16
:1013C000E3077A0803187A0FE4070B2ACA1C0B2AD2
:1013D00094305507F7005608F80002300318033020
:1013E000F8075708F900003003180130F9075808CA
:1013F000FA00003003180130FA077708E10778088F
:101400000318780FE20779080318790FE3077A08C1
:1014100003187A0FE407CA1D302A94305907F700E1
:101420005A08F800023003180330F8075B08F90087
:10143000003003180130F9075C08FA000030031887
:101440000130FA077708E10778080318780FE207F8
:1014500079080318790FE3077A0803187A0FE4076D
:101460004A1E552A26305D07F7005E08F800023054
:1014700003180330F8075F08F90000300318013043
:10148000F9076008FA00003003180130FA077708FE
:10149000E10778080318780FE20779080318790F35
:1014A000E3077A0803187A0FE4076408B6006308B4
:1014B000B5006208B4006108B3006108F700620873
:1014C000F8006308F9006408FA007A08B6007908A1
:1014D000B5007808B4007708B3000130E100E830C7
:1014E000E2008A110E218A153608E2003508E10073
:1014F0003408E0003308DF0000200130E100E200A2
:101500008A110E218A154030DF008A110D278A15B5
:10151000F808031D8E2A0030F800A82A0130E100E7
:101520000230E2008A110E218A15DF018A110D278F
:101530008A15F808031D9F2A0030F800A82A0130F8
:10154000E100E830E2008A110E218A150130F8002E
:101550008A110A16952C03103F0CFF3EC00083161B
:10156000C1014130C0008A11831271228A1583168D
:10157000C1014130C000C3014230C2008A11831250
:1015800098248A15BE08031D782B3F080C3A0319CE
:10159000D32A023A0319DB2A1E3A0319E32A023A34
:1015A0000319EB2AF32A5730E1001830E2008A11C0
:1015B0000E218A15F62A5730E1003030E2008A11F8
:1015C0000E218A15F62A5730E1004030E2008A11D8
:1015D0000E218A15F62A5730E1005030E2008A11B8
:1015E0000E218A15F62A0030F800BF2C5630E10093
:1015F0000830E2008A110E218A155030E1004008BF
:10160000E2008A110E218A1553088316C300831243
:1016100052088316C200831251088316C100831238
:1016200050088316C00083123F088316C4008A1135
:10163000831227268A157808D9007708D800590818
:101640008316C100831258088316C0008A118312C2
:10165000C1268A157908E0007808DF00513083162A
:10166000C200831279088316C40083127808831697
:10167000C3008A11831269218A154F088316C3009B
:1016800083124E088316C20083124D088316C100D0
:1016900083124C088316C00083123F088316C400CF
:1016A0008A11831227268A157808DB007708DA006A
:1016B0005B08003C0318652BFF3A031D632B5A0897
:1016C000003C0318652BFF306F2B01305A02F700E6
:1016D0005B08FA000030031C0130FA027708DF00D3
:1016E0004630E1005F08E2008A110E218A15992C2C
:1016F0003E0B962C3F08083A0319882B023A03192F
:10170000B82B063A0319E92B023A03191A2C4A2C72
:101710004830E1001030E2008A110E218A1547306E
:10172000E1000830E2008A110E218A153230E10012
:101730000230E2008A110E218A153030E1000C30AF
:10174000E2008A110E218A15FF30E1000130E2002B
:101750008A110E218A153030E100E2008A110E2133
:101760008A15FF30E100E2018A110E218A154D2C05
:101770004830E1002830E2008A110E218A154730F6
:10178000E1000830E2008A110E218A153230E100B2
:101790000330E2008A110E218A153030E100093051
:1017A000E2008A110E218A15FF30E1000130E200CB
:1017B0008A110E218A153030E1002030E2008A11B2
:1017C0000E218A15FF30E100E2018A110E218A15EF
:1017D0004D2C4830E1003830E2008A110E218A1584
:1017E0004730E1000830E2008A110E218A153230BC
:1017F000E1000330E2008A110E218A153030E10049
:101800000830E2008A110E218A15FF30E100013014
:10181000E2008A110E218A153030E1002030E2000A
:101820008A110E218A15FF30E100E2018A110E2192
:101830008A154D2C4830E100E2008A110E218A15EC
:101840004730E1000830E2008A110E218A1532305B
:10185000E1000330E2008A110E218A153030E100E8
:101860000730E2008A110E218A15FF30E1000130B5
:10187000E2008A110E218A153030E1002030E200AA
:101880008A110E218A15FF30E100E2018A110E2132
:101890008A154D2C0030F800BF2C7030E100400854
:1018A000E2008A110E218A1557088316C30083129D
:1018B00056088316C200831255088316C10083128E
:1018C00054088316C00083123F088316C4008A118F
:1018D000831227268A157808DD007708DC00C11DF1
:1018E000772C4808DC0749080318490FDD075D0815
:1018F0008316C10083125C088316C0008A1183120C
:10190000C1268A157908E0007808DF007130831657
:10191000C200831279088316C400831278088316E4
:10192000C3008A11831269218A15992C0030F800AE
:10193000BF2C3608E2003508E1003408E000330827
:10194000DF00002001308316C7008A118312E820CF
:101950008A157808DE000130E1000230E2008A11C9
:101960000E218A15DF018A110D278A150130E10049
:101970005E08E2008A110E218A150130F800080085
:101980008030E1000130E2008A110E218A15FF301B
:10199000E1000130E2008A110E218A15E101E20125
:1019A0008A110E218A159130E1003208E2008A1175
:1019B0000E218A15E1010130E2008A110E218A15FB
:1019C000FF30E100E2018A110E218A158030E1002A
:1019D000E2018A110E218A15E1010130E2008A112B
:1019E0000E218A153908B1003808B0008316C701E6
:1019F0008A118312E8208A15781C1D2DAD08031D5D
:101A0000042DAE0803191C2D30083802BE00390819
:101A1000BF003108031C310FBF022E083F02031C18
:101A20001C2D031D172D3E082D0203181C2D2F14ED
:101A3000FF30F800F900622DF62C3908B1003808A3
:101A4000B00013308316C7008A118312E8208A156C
:101A500078080739031D4B2DAD08031D322DAE0844
:101A600003194A2D30083802C0003908C100310876
:101A7000031C310FC1022E084102031C4A2D031D15
:101A8000452D40082D0203184A2D2F14FF30F80071
:101A9000F900612D212D1E308316C6008A11831294
:101AA0004A248A157908BF007808BE000B30E1008F
:101AB0000130E2008A110E218A153E08F8003F0825
:101AC000F90079087908BF007808BE00103084005A
:101AD0003F08C1003E08C000C8010408C700481004
:101AE000831B4814410EF038C300C307E23EC40014
:101AF000323EC60041080F39C407C407C607E93E95
:101B0000C500C507C507400E0F39C507C607C50D77
:101B1000C60DC609C60D40080F39C607C30D0730EC
:101B2000C2000A30C607C503031C922DC507C403B3
:101B3000031C962DC407C303031C9A2DC307C203BD
:101B4000031C9E2D42308400831307304705471342
:101B5000840746300402031947170008F700031DE5
:101B6000B92D471BB92D471AC12DC719B92D2030E2
:101B7000BC2DC71547123030F70777080C1EBE2D55
:101B80009900840A471FA92D0D300C1EC52D990000
:101B90000A300C1EC92D99003E102F183E142F102C
:101BA00000303E180130F800F8080319E02D6830C5
:101BB00003178D0000308F008A1103136E208A15E1
:061BC0008A110A128B2FAE
:1020000083168612831286160430BE00FA30BF0093
:102010003F3084008313000803191B280230F800A6
:10202000F701F70B1128F80B10289730F700F70B82
:102030001728800B0E28BE0B0628831686128312E3
:102040008612623003178D0000308F000A120313CE
:102050006E200A16353090008E01FF308F0006305A
:102060008E0083160C14C03083128B040130BE0026
:102070005230AC00AE01AD012F10BE08031951283B
:1020800089308316C7000A128312E8200A167808DE
:102090000138CA008930E1004A08E2000A120E2124
:1020A0000A168830E100E2010A120E210A16803079
:1020B000E1000130E2000A120E210A16FF30E100B1
:1020C0000130E2000A120E210A16E101E2010A12B1
:1020D0000E210A1691308316C7000A128312E820D7
:1020E0000A167808B200E1010130E2000A120E215E
:1020F0000A16FF30E100E2010A120E210A168030B2
:10210000E100E2010A120E210A1660308316C700B0
:102110000A128312E8200A1678081238CA006030C2
:10212000E1004A08E2000A120E210A16CD01CC0194
:10213000CB017D30CA000A1291210A160130E1005C
:10214000FF30E2000A120E210A16CB013F30CA000E
:10215000CD014030CC008030E1000130E2000A12B5
:102160000E210A16FF30E1000130E2000A120E21B2
:102170000A16E101E2010A120E210A16FF30E100FF
:102180000630E2000A120E210A1683308316C700B9
:102190000A128312E8200A1678080438CF00833028
:1021A000E1004F08E2000A120E210A16FF30E1009A
:1021B0000730E2000A120E210A168130E1000130D8
:1021C000E2000A120E210A168030E1000130E2001E
:1021D0000A120E210A169430E1006B30E2000A1256
:1021E0000E210A168330E100E2010A120E210A16BE
:1021F0003908B1003808B00083308316C7000A12CE
:102200008312E8200A16F808031D2329AD08031DD0
:102210000C29AE080319222930083802CF003908EA
:10222000D0003108031C310FD0022E085002031CCD
:102230002229031D1F294F082D02031822290030CF
:10224000F8007E29FC288330E1000130E2000A1208
:102250000E210A1692308316C7000A128312E82054
:102260000A167808CE004A08840083134B18831797
:102270004E087F3980004C08840083134D18831763
:10228000F701CE1B77147708013980008130E10017
:10229000E2010A120E210A16FF30E1000630E200C8
:1022A0000A120E210A1683308316C7000A128312FF
:1022B000E8200A167808CF008330E1007808E200B1
:1022C0000A120E210A16FF30E1000130E2000A1264
:1022D0000E210A16E1010130E2000A120E210A164F
:1022E000FF30E100E2010A120E210A168030E100FF
:1022F000E2010A120E210A160130F800F808031D47
:1023000084290030F800982CB030CA00CC0141304C
:10231000CB000630CD008316111411188D298312BD
:102320002C088316CA000A128312C6200A164A080D
:102330008316CA000A128312C6200A167808B7004C
:10234000831691149118A22983122C080138CE000B
:102350008316CA000A128312C6200A164D08CD033E
:10236000013C0318C5294C08FA004B08CB0A031995
:10237000CC0A840083137A1883170130F7000A12FD
:10238000D8200A1678088000AE294C08FA004B08BD
:10239000CB0A0319CC0A840083137A188317F70138
:1023A0000A12D8200A167808800083161115111910
:1023B000D729FF308312E1000130E2000A120E211A
:1023C0000A164F30E100E2010A120E210A164E30C1
:1023D000E1002C30E2000A120E210A16FF30E10063
:1023E000E2010A120E210A16B630E100B430E20012
:1023F0000A120E210A16C0080319002A0C30012AFD
:102400000030C700C801C90149082F3C031C492AF4
:1024100047084902031C102A3F084802031D2B2AC3
:10242000490CF700F70CF70C1F30F7057708413E11
:102430008400831349080739F8000130F700F808D1
:102440000319262A0310F70DF80B222A7708FF3A02
:1024500000058000472A490CF700F70CF70C1F30E5
:10246000F7057708413E840083130008CA00490835
:102470000739F8004A08F700F8080319432A03103F
:10248000F70CF80B3F2A77080139031DC80AC90A5F
:10249000042AB030CA00CC014130CB000630CD0058
:1024A000831691149118522A83122C088316CA009D
:1024B0000A128312C6200A164A088316CA000A1294
:1024C0008312C6200A164D08CD03003A03197D2A4F
:1024D0004C08FA004B08CB0A0319CC0A840083137A
:1024E0007A1883170008CE008316CA000A128312D6
:1024F000C6200A167808B700632A83161115111929
:102500007F2AFF308312E1000130E2000A120E211F
:102510000A16E101E2010A120E210A16FF30E1005B
:10252000E2010A120E210A160930E100E2010A1244
:102530000E210A161030E100E2010A120E210A16DD
:102540001130E100E2010A120E210A162430E100E6
:102550000130E2000A120E210A162530E100FF3098
:10256000E2000A120E210A167530E100E2010A1299
:102570000E210A16FF30E1000130E2000A120E219E
:102580000A164E30E1002C30E2000A120E210A1623
:102590004830E100E2010A120E210A163030E10053
:1025A0002030E2000A120E210A16FF30E100E2019B
:1025B0000A120E210A163030E1000930E2000A1238
:1025C0000E210A165430E100E2010A120E210A1609
:1025D0003130E1000430E2000A120E210A163230D6
:1025E000E1000330E2000A120E210A164030E10039
:1025F0008330E2000A120E210A164630E10025302F
:10260000E2000A120E210A166030E100E2010A120D
:102610000E210A162730E100E2010A120E210A16E5
:102620005030E1000630E2000A120E210A16513045
:10263000E100E2010A120E210A165230E100963042
:10264000E2000A120E210A165630E1000830E200BC
:102650000A120E210A165730E1003030E2000A1249
:102660000E210A166130E100E2010A120E210A165B
:102670006230E100E2010A120E210A166430E10024
:10268000E2010A120E210A166530E100E2010A1287
:102690000E210A166630E100A030E2000A120E2177
:1026A0000A16FF30E1000130E2000A120E210A167C
:1026B0002230E1003230E2000A120E210A164730C1
:1026C000E1001430E2000A120E210A164930E1003E
:1026D000FF30E2000A120E210A164A30E100E20140
:1026E0000A120E210A16FF30E100E2010A120E2141
:1026F0000A167A30E1000A30E2000A120E210A16A8
:102700007B30E100E2010A120E210A167830E10066
:102710002130E2000A120E210A16FF30E1000130DA
:10272000E2000A120E210A162330E1003430E200E2
:102730000A120E210A164230E100E2010A120E21AD
:102740000A164430E100FF30E2000A120E210A1698
:102750004530E1002630E2000A120E210A1646300A
:10276000E1000530E2000A120E210A164030E100B5
:10277000E2000A120E210A160E30E1000630E200D5
:102780000A120E210A162030E1001A30E2000A1265
:102790000E210A164330E1004030E2000A120E21F9
:1027A0000A16FF30E100E2010A120E210A16343047
:1027B000E1000330E2000A120E210A163530E10072
:1027C0004430E2000A120E210A16FF30E100013007
:1027D000E2000A120E210A163130E1000430E20054
:1027E0000A120E210A164B30E1000930E2000A12EB
:1027F0000E210A164C30E1000530E2000A120E21CB
:102800000A164D30E1000430E2000A120E210A16C9
:10281000FF30E100E2010A120E210A164430E10005
:10282000E2010A120E210A164530E1002030E200D2
:102830000A120E210A164730E1000830E2000A129F
:102840000E210A164830E1002830E2000A120E215B
:102850000A166730E100E2010A120E210A167030F2
:10286000E1000430E2000A120E210A167130E10084
:102870000130E2000A120E210A167230E100FE3029
:10288000E2000A120E210A167630E100E2010A1275
:102890000E210A167730E100E2010A120E210A1613
:1028A000FF30E1000130E2000A120E210A160D305D
:1028B000E1000130E2000A120E210A16FF30E100A9
:1028C000E2010A120E210A168030E1000130E20016
:1028D0000A120E210A160130E100F830E2000A1255
:1028E0000E210A16FF30E1000130E2000A120E212B
:1028F0000A168E30E1000130E2000A120E210A169B
:10290000E1010130E2000A120E210A16FF30E10057
:10291000E2010A120E210A168030E100E2010A12D9
:102920000E210A160A128A155E290A168A117808DB
:10293000BF01C830BE003F08AE003E08AD00CD303C
:10294000CD00CC30CC004C30CB007B30CA000A121A
:1029500091210A16BE011230BF000A128A15AB225D
:102960000A168A110130BE000E30BF000A128A1505
:10297000AB220A168A11E2010330E1000D30E000BB
:102980004030DF000A128A1500200A168A118A11C7
:042990000A12882F70
:04400E00C42FFF3F7D
:00000001FF
;PIC16F886
;CRC=07BA  CREATED="22-มี.ค.-17 19:53"
